:100000000C942A000C9447000C9447000C94470071
:100010000C9447000C9447000C9447000C94470044
:100020000C9447000C9447000C9447000C94470034
:100030000C9447000C9447000C9447000C94470024
:100040000C9447000C9447000C9447000C94470014
:100050000C94470011241FBECFE5D8E0DEBFCDBF12
:1000600010E0A0E6B0E0EAEAF3E302C005900D92EA
:10007000A239B107D9F710E0A2E9B0E001C01D92A2
:10008000AE39B107E1F70E9465140C94D3190C94B2
:100090000000EF92FF920F931F937B018C0120E0F1
:1000A00030E040E05FE40E94490388238CF0C801FF
:1000B000B70120E030E040E05FE40E94C1010E940F
:1000C000A9039B01AC01205030404040504806C07D
:1000D000C801B7010E94A9039B01AC01B901CA0183
:1000E0001F910F91FF90EF900895A0E0B0E0EBE733
:1000F000F0E00C940516DC012B01FA019C91923082
:1001000008F439C1EB018881823008F433C194309E
:1001100069F4843009F02FC111969C91119789815F
:10012000981709F428C1ACE6B0E025C1843009F481
:1001300021C18230A9F4923009F01DC19A01AD01AC
:1001400088E0EA010990AE01E90109929E0181501F
:10015000C1F7E201898111969C918923818308C1AD
:10016000923009F407C112962D903C901397EB0141
:100170008A819B811496AD90BD90CD90DC901797AD
:10018000EC80FD800E811F819101281B390BB90184
:1001900037FF04C066277727621B730B6032710537
:1001A0000CF061C0121613066CF537014801062EDB
:1001B00004C096948794779467940A94D2F721E0C8
:1001C00030E040E050E004C0220F331F441F551FB1
:1001D0006A95D2F721503040404050402E213F21B7
:1001E00040235123211531054105510521F021E01E
:1001F00030E040E050E079018A01E628F72808293C
:1002000019293CC0232BD1F1260E371E350146019A
:10021000062E04C096948794779467940A94D2F734
:1002200021E030E040E050E004C0220F331F441FC3
:10023000551F6A95D2F721503040404050402A2146
:100240003B214C215D21211531054105510521F04E
:1002500021E030E040E050E059016A01A628B728CB
:10026000C828D9280BC0821593052CF01C01AA249C
:10027000BB24650103C0EE24FF24870111969C91E5
:10028000D20111968C91981709F445C0992339F041
:10029000A80197012A193B094C095D0906C0A6016E
:1002A00095012E193F09400B510B57FD08C01182D3
:1002B0003382228224833583468357831DC081E0A5
:1002C00081833382228288279927DC01821B930B4A
:1002D000A40BB50B84839583A683B7830DC0220F2F
:1002E000331F441F551F24833583468357838281E0
:1002F000938101979383828324813581468157813D
:10030000DA01C9010197A109B1098F5F9F4FAF4F72
:10031000BF4328F30BC0918333822282EA0CFB1C7B
:100320000C1D1D1DE482F5820683178383E0808304
:10033000248135814681578157FF1AC0C901AA27F8
:1003400097FDA095BA2F81709070A070B0705695EF
:10035000479537952795822B932BA42BB52B848318
:100360009583A683B7838281938101969383828349
:10037000DF0101C0D201CD01CDB7DEB7E2E10C94BF
:100380002116A0E2B0E0E7ECF1E00C9411166983CD
:100390007A838B839C832D833E834F835887E9E048
:1003A000EE2EF12CEC0EFD1ECE010196B7010E943F
:1003B000D2048E010F5E1F4FCE010596B8010E9438
:1003C000D2048A8991E089278A8BC701B801AE01DE
:1003D000475E5F4F0E9475000E94FD03A096E6E015
:1003E0000C942D16A0E2B0E0E8EFF1E00C941116A9
:1003F00069837A838B839C832D833E834F835887C5
:10040000F9E0EF2EF12CEC0EFD1ECE010196B701A6
:100410000E94D2048E010F5E1F4FCE010596B801D7
:100420000E94D204C701B801AE01475E5F4F0E942F
:1004300075000E94FD03A096E6E00C942D16A0E244
:10044000B0E0E5E2F2E00C94051669837A838B83D1
:100450009C832D833E834F835887CE010196BE0136
:10046000675F7F4F0E94D204CE010596BE016F5E8A
:100470007F4F0E94D2049985923088F0898982301A
:10048000C8F0943019F4823051F404C0843029F457
:10049000923081F48CE690E0C6C0923049F420E0BE
:1004A0009A858A89981321E02A87CE010996BBC0D4
:1004B000823049F420E09A858A89981321E02A8BBA
:1004C000CE014196B0C02D843E844F8458886D88FB
:1004D0007E888F88988CEE24FF248701AA24BB2471
:1004E000650140E050E060E070E0E0E0F0E0C10174
:1004F00081709070892BE9F0E60CF71C081D191D1E
:100500009A01AB012A0D3B1D4C1D5D1D80E090E062
:10051000A0E0B0E0E614F7040805190520F481E036
:1005200090E0A0E0B0E0BA01A901480F591F6A1F8E
:100530007B1FAA0CBB1CCC1CDD1C97FE08C081E0F5
:1005400090E0A0E0B0E0A82AB92ACA2ADB2A3196B6
:10055000E032F10549F0660C771C881C991C569412
:10056000479437942794C3CFFA85EA892B893C892D
:100570008B859C85280F391F2E5F3F4F17C0CA01FE
:1005800081709070892B61F016950795F794E79428
:1005900080E090E0A0E0B0E8E82AF92A0A2B1B2BC3
:1005A00076956795579547952F5F3F4F77FDE7CF36
:1005B0000CC0440F551F661F771F17FD4160EE0CDE
:1005C000FF1C001F111F21503040403090E05907A0
:1005D00090E0690790E4790760F32B8F3C8FDB0193
:1005E000CA018F779070A070B07080349105A1051A
:1005F000B10561F447FD0AC0E114F10401051105DC
:1006000029F0405C5F4F6F4F7F4F40781A8EFE1786
:1006100011F081E08A8F4D8F5E8F6F8F78A383E01A
:10062000898FCE0149960E94FD03A096E2E10C94C9
:100630002116A8E1B0E0EFE1F3E00C941116698314
:100640007A838B839C832D833E834F83588789E0F5
:10065000E82EF12CEC0EFD1ECE010196B7010E9492
:10066000D2048E010F5E1F4FCE010596B8010E9485
:10067000D2048985823040F08989823028F0C70110
:10068000B8010E944A0501C08FEF6896E6E00C941D
:100690002D16A8E1B0E0EFE4F3E00C9411166983A5
:1006A0007A838B839C832D833E834F83588789E095
:1006B000E82EF12CEC0EFD1ECE010196B7010E9432
:1006C000D2048E010F5E1F4FCE010596B8010E9425
:1006D000D2048985823040F08989823028F0C701B0
:1006E000B8010E944A0501C08FEF6896E6E00C94BD
:1006F0002D16A8E1B0E0EFE7F3E00C941116698342
:100700007A838B839C832D833E834F83588789E034
:10071000E82EF12CEC0EFD1ECE010196B7010E94D1
:10072000D2048E010F5E1F4FCE010596B8010E94C4
:10073000D2048985823040F08989823028F0C7014F
:10074000B8010E944A0501C081E06896E6E00C9479
:100750002D16ACE0B0E0EFEAF3E00C9415166983D7
:100760007A838B839C83CE010196BE016B5F7F4FA2
:100770000E94D2048D81823061F1823050F1843048
:1007800021F48E81882351F12EC02F81388537FDC9
:1007900020C06E812F3131051CF06623F9F023C093
:1007A0008EE190E0821B930B29853A854B855C8511
:1007B00004C056954795379527958A95D2F76623B5
:1007C000B1F050954095309521953F4F4F4F5F4F79
:1007D0000EC020E030E040E050E009C02FEF3FEFD6
:1007E0004FEF5FE704C020E030E040E050E8B9019F
:1007F000CA012C96E2E00C943116DF92EF92FF9240
:100800000F931F93FC01E480F58006811781D1804E
:100810008081823048F480E090E0A0E1B0E0E82AF6
:10082000F92A0A2B1B2BA5C0843009F49FC0823003
:1008300021F4EE24FF24870105C0E114F104010531
:10084000110519F4E0E0F0E096C0628173819FEF3A
:10085000623879070CF05BC022E83FEF261B370BAC
:100860002A3131052CF020E030E040E050E02AC091
:10087000B801A701022E04C0769567955795479554
:100880000A94D2F781E090E0A0E0B0E004C0880FC5
:10089000991FAA1FBB1F2A95D2F70197A109B10979
:1008A0008E219F21A023B1230097A105B10521F03E
:1008B00081E090E0A0E0B0E09A01AB01282B392B59
:1008C0004A2B5B2BDA01C9018F779070A070B07052
:1008D00080349105A105B10539F427FF09C0205CDA
:1008E0003F4F4F4F5F4F04C0215C3F4F4F4F5F4F13
:1008F000E0E0F0E02030A0E03A07A0E04A07A0E402
:100900005A0710F0E1E0F0E079018A0127C0603871
:10091000710564F5FB01E158FF4FD801C7018F77DE
:100920009070A070B07080349105A105B10539F4C4
:10093000E7FE0DC080E490E0A0E0B0E004C08FE3EB
:1009400090E0A0E0B0E0E80EF91E0A1F1B1F17FFA1
:1009500005C016950795F794E794319687E01695AC
:100960000795F794E7948A95D1F705C0EE24FF2404
:100970008701EFEFF0E06E2F679566276795902F60
:100980009F77D794DD24D7948E2F8695492F462BB9
:10099000582F5D29B701CA011F910F91FF90EF9069
:1009A000DF900895FC01DB01408151812281622F9B
:1009B0006F7770E0221F2227221F9381892F880FD3
:1009C000822B282F30E0991F9927991F11969C930D
:1009D000119721153105A9F54115510561057105DD
:1009E00011F482E037C082E89FEF13969C938E93B8
:1009F00012979A01AB0167E0220F331F441F551F66
:100A00006A95D1F783E08C930DC0220F331F441FEA
:100A1000551F12968D919C911397019713969C9355
:100A20008E931297203080E0380780E0480780E4FA
:100A3000580758F314962D933D934D935C93179755
:100A400008952F3F310579F4411551056105710570
:100A500019F484E08C93089564FF03C081E08C93C3
:100A600012C01C9210C02F57304013963C932E9307
:100A7000129783E08C9387E0440F551F661F771F02
:100A80008A95D1F7706414964D935D936D937C9322
:100A9000179708951F93DC01FB019C91923008F495
:100AA00047C08081823008F443C0943051F41196DD
:100AB0001C91843099F58181682F70E0611B710968
:100AC0003FC0843021F0923031F48230B9F181811D
:100AD000882389F12DC011961C9111978230F1F075
:100AE00081811817D9F412962D913C911397828128
:100AF00093818217930794F028173907BCF0149656
:100B00008D919D910D90BC91A02D248135814681C0
:100B10005781281739074A075B0718F4112341F05A
:100B20000AC082179307A407B50740F4112319F0F0
:100B300061E070E005C06FEF7FEF02C060E070E041
:100B4000CB011F910895DF93CF93CDB7DEB7C0548B
:100B5000D0400FB6F894DEBF0FBECDBF0E949906FD
:100B60000E94D70B0E94180B83E48E8B1D8A80E6AF
:100B700090E061E045E00E94251280E090E0A6E16F
:100B8000B4E48B879C87AD87BE876B857C858D851C
:100B90009E8520E030E04AE753E40E941F02DC011A
:100BA000CB018F839887A987BA876F8178858985DC
:100BB0009A8520E030E040E85FE30E9479038823D3
:100BC0002CF481E090E09E838D833FC06F81788517
:100BD00089859A8520E03FEF4FE757E40E9419038B
:100BE00018164CF56B857C858D859E8520E030E060
:100BF00040E251E40E941F02DC01CB01BC01CD01A7
:100C00000E944900DC01CB019E838D830FC089E1E6
:100C100090E09C838B838B819C810197F1F79C836F
:100C20008B838D819E8101979E838D838D819E8193
:100C3000009769F714C06F81788589859A850E942D
:100C40004900DC01CB019E838D838D819E819A8337
:100C5000898389819A810197F1F79A8389830E9418
:100C6000FC111B8A1A8A89E08F870E945B0B8C8B90
:100C70008C898334D1F38B89282F30E0CE01C7963D
:100C8000FC01E20FF31F8C8980838B898F5F8B8B34
:100C90008A898F5F8A8B8C898B3249F08C8988375F
:100CA00031F08C898D3219F08C89853221F48C8950
:100CB0000E94330E0FC08C89843261F08C898D3391
:100CC00049F08C89882F90E0A0E0B0E0BC01CD0114
:100CD0000E9452118C89843219F40E94FC11C1CFF8
:100CE0008C898D3309F0BDCF8B89282F30E0CE0160
:100CF000C796FC01E20FF31F1082CE01C7966A89E6
:100D00000E94AB12998B888B888999890E948613DF
:100D10008F878F85882F90E0A0E0B0E0BC01CD01E7
:100D200042E02BE00E943F12888999890E94E916CF
:100D300098CFDF93CF930F92CDB7DEB781E0898351
:100D4000EAE3F0E08FEF8083E7E3F0E08FEF80836A
:100D5000E4E3F0E08FE08083E1E3F0E085ED808381
:100D6000EBE3F0E01082E8E3F0E01082E5E3F0E08E
:100D70008FEF8083E2E3F0E01082198289810F9087
:100D8000CF91DF910895DF93CF9300D000D00F92E1
:100D9000CDB7DEB78A836B8381E089838A81843013
:100DA000A0F58A81282F30E03D832C838C819D81A2
:100DB00081309105D1F02C813D81223031052CF418
:100DC0008C819D81009761F01EC02C813D81223075
:100DD000310581F08C819D818330910581F013C0B4
:100DE000EAE3F0E08B8180830EC0E7E3F0E08B81E3
:100DF000808309C0E4E3F0E08B81808304C0E1E3F9
:100E0000F0E08B818083198202C083E0898389812D
:100E10000F900F900F900F900F90CF91DF9108954A
:100E2000DF93CF9300D000D00F92CDB7DEB78A8387
:100E30006B8381E089838A818430A0F58A81282FA1
:100E400030E03D832C838C819D8181309105D1F0F0
:100E50002C813D81223031052CF48C819D810097BD
:100E600061F01EC02C813D812230310581F08C81E2
:100E70009D818330910581F013C0EBE3F0E08B811D
:100E800080830EC0E8E3F0E08B81808309C0E5E356
:100E9000F0E08B81808304C0E2E3F0E08B8180830B
:100EA000198202C083E0898389810F900F900F908F
:100EB0000F900F90CF91DF910895DF93CF9300D0E3
:100EC00000D000D0CDB7DEB78A836B834C8381E03E
:100ED00089838A81843008F0D4C08B81883008F0FF
:100EE000D0C08C81823008F0CCC08A81843008F078
:100EF000CAC08A81282F30E03E832D836D817E8198
:100F00006130710509F441C08D819E818230910567
:100F100034F42D813E812115310571F0B0C06D8111
:100F20007E816230710509F459C08D819E818330C4
:100F3000910509F47CC0A3C0AAE3B0E0EAE3F0E0C5
:100F40008081482F8B81282F30E081E090E002C023
:100F5000880F991F2A95E2F7809584238C93AAE342
:100F6000B0E0EAE3F0E08081482F8C81282F30E068
:100F70008B81882F90E0B90102C0660F771F8A9598
:100F8000E2F7CB01842B8C937AC0A7E3B0E0E7E3D0
:100F9000F0E08081482F8B81282F30E081E090E0C5
:100FA00002C0880F991F2A95E2F7809584238C93BD
:100FB000A7E3B0E0E7E3F0E08081482F8C81282FA1
:100FC00030E08B81882F90E0B90102C0660F771F57
:100FD0008A95E2F7CB01842B8C9351C0A4E3B0E057
:100FE000E4E3F0E08081482F8B81282F30E081E01E
:100FF00090E002C0880F991F2A95E2F7809584231C
:101000008C93A4E3B0E0E4E3F0E08081482F8C818E
:10101000282F30E08B81882F90E0B90102C0660F45
:10102000771F8A95E2F7CB01842B8C9328C0A1E32C
:10103000B0E0E1E3F0E08081482F8B81282F30E0A1
:1010400081E090E002C0880F991F2A95E2F7809511
:1010500084238C93A1E3B0E0E1E3F0E08081482FAA
:101060008C81282F30E08B81882F90E0B90102C05D
:10107000660F771F8A95E2F7CB01842B8C93198238
:1010800002C083E08983898126960FB6F894DEBF7B
:101090000FBECDBFCF91DF910895DF93CF9300D0E6
:1010A00000D000D0CDB7DEB78A836B834C8381E05C
:1010B00089838A81843008F0D0C08B81883008F021
:1010C000CCC08C81823008F0C8C08A81282F30E0E3
:1010D0003E832D836D817E816130710509F441C0AD
:1010E0008D819E818230910534F42D813E812115C0
:1010F000310571F0B0C06D817E816230710509F4F7
:1011000059C08D819E818330910509F47CC0A3C0B4
:10111000ABE3B0E0EBE3F0E08081482F8B81282F38
:1011200030E081E090E002C0880F991F2A95E2F735
:10113000809584238C93ABE3B0E0EBE3F0E0808117
:10114000482F8C81282F30E08B81882F90E0B901C7
:1011500002C0660F771F8A95E2F7CB01842B8C9330
:101160007AC0A8E3B0E0E8E3F0E08081482F8B810B
:10117000282F30E081E090E002C0880F991F2A9567
:10118000E2F7809584238C93A8E3B0E0E8E3F0E0F5
:101190008081482F8C81282F30E08B81882F90E030
:1011A000B90102C0660F771F8A95E2F7CB01842B45
:1011B0008C9351C0A5E3B0E0E5E3F0E08081482FD7
:1011C0008B81282F30E081E090E002C0880F991FCA
:1011D0002A95E2F7809584238C93A5E3B0E0E5E3BC
:1011E000F0E08081482F8C81282F30E08B81882F80
:1011F00090E0B90102C0660F771F8A95E2F7CB0134
:10120000842B8C9328C0A2E3B0E0E2E3F0E080817D
:10121000482F8B81282F30E081E090E002C0880FBA
:10122000991F2A95E2F7809584238C93A2E3B0E07E
:10123000E2E3F0E08081482F8C81282F30E08B8121
:10124000882F90E0B90102C0660F771F8A95E2F7F8
:10125000CB01842B8C93198202C083E0898389811E
:1012600026960FB6F894DEBF0FBECDBFCF91DF91AB
:101270000895DF93CF9300D000D0CDB7DEB78A8337
:1012800081E089838A81843008F040C08A81282FD8
:1012900030E03C832B838B819C8181309105E9F088
:1012A0002B813C81223031052CF48B819C8100976D
:1012B00061F02AC02B813C8122303105B1F08B8155
:1012C0009C8183309105C9F01FC0ABE3B0E0EBE334
:1012D000F0E0808180958C9317C0A8E3B0E0E8E34C
:1012E000F0E0808180958C930FC0A5E3B0E0E5E34A
:1012F000F0E0808180958C9307C0A2E3B0E0E2E348
:10130000F0E0808180958C93198202C083E089830C
:1013100089810F900F900F900F90CF91DF910895DA
:10132000DF93CF9300D000D00F92CDB7DEB78A8382
:101330006B8319828A81843008F074C08B81883075
:1013400008F070C08A81282F30E03D832C838C8187
:101350009D818130910549F12C813D8122303105FB
:101360002CF48C819D81009761F05AC02C813D81C5
:101370002230310571F18C819D8183309105E9F135
:101380004FC0ABE3B0E0EBE3F0E08081482F8B810E
:10139000282F30E081E090E0022E02C0880F991FD4
:1013A0000A94E2F784278C933BC0A8E3B0E0E8E31B
:1013B000F0E08081482F8B81282F30E081E090E0A1
:1013C000022E02C0880F991F0A94E2F784278C939B
:1013D00027C0A5E3B0E0E5E3F0E08081482F8B81F2
:1013E000282F30E081E090E0022E02C0880F991F84
:1013F0000A94E2F784278C9313C0A2E3B0E0E2E3FF
:10140000F0E08081482F8B81282F30E081E090E050
:10141000022E02C0880F991F0A94E2F784278C934A
:10142000198202C083E0898389810F900F900F9009
:101430000F900F90CF91DF910895DF93CF9300D05D
:1014400000D000D0CDB7DEB78A837C836B8319824E
:101450008B819C81009709F442C08A818430E0F539
:101460008A81282F30E03E832D838D819E818130BB
:101470009105E1F02D813E81223031052CF48D81E2
:101480009E81009761F026C02D813E81223031057A
:10149000A1F08D819E8183309105B1F01BC0E9E3FD
:1014A000F0E08081EB81FC81808314C0E6E3F0E012
:1014B0008081EB81FC8180830DC0E3E3F0E08081DB
:1014C000EB81FC81808306C0E0E3F0E08081EB816A
:1014D000FC818083198205C083E0898302C082E099
:1014E0008983898126960FB6F894DEBF0FBECDBFE3
:1014F000CF91DF910895DF93CF93CDB7DEB72797D4
:101500000FB6F894DEBF0FBECDBF8A836B835D83B9
:101510004C8319828C819D81009709F47DC08A815A
:10152000843008F076C08B81883008F072C08A81E0
:10153000282F30E03F832E834E815F81413051055B
:1015400059F18E819F818230910534F42E813F8143
:101550002115310569F05BC04E815F814230510534
:1015600079F18E819F818330910509F43DC04FC090
:10157000E9E3F0E08081282F30E08B81882F90E034
:10158000A90102C0559547958A95E2F7CA01817075
:10159000EC81FD8180833BC0E6E3F0E08081282F71
:1015A00030E08B81882F90E0A90102C055954795C6
:1015B0008A95E2F7CA018170EC81FD81808327C0A2
:1015C000E3E3F0E08081282F30E08B81882F90E0EA
:1015D000A90102C0559547958A95E2F7CA01817025
:1015E000EC81FD81808313C0E0E3F0E08081282F4F
:1015F00030E08B81882F90E0A90102C05595479576
:101600008A95E2F7CA018170EC81FD81808319829D
:1016100005C083E0898302C082E08983898127969F
:101620000FB6F894DEBF0FBECDBFCF91DF91089506
:10163000DF93CF93CDB7DEB782E064E040E00E9455
:101640005D0782E065E040E00E945D0782E066E0C1
:1016500040E00E945D0782E067E040E00E945D0795
:1016600082E060E041E00E945D0782E061E041E0ED
:101670000E945D0782E062E041E00E945D0782E037
:1016800063E041E00E945D0782E064E041E00E9487
:101690004D0882E065E041E00E944D0882E066E08E
:1016A00041E00E944D0882E067E041E00E944D0861
:1016B000CF91DF910895DF93CF9300D000D00F92A8
:1016C000CDB7DEB783E48B831A8219821A8260C099
:1016D0008A81882F90E0FC01E258FF4F908182E0E0
:1016E000692F40E00E944D0819823FC083E48C833B
:1016F0008981882F90E0FC01E658FF4F90819E0180
:101700002C5F3F4F82E0692FA9010E947B0A8C81E8
:10171000882341F58981482F50E08A81282F30E0C5
:10172000CA01880F991F880F991F820F931FFC0110
:10173000EE57FF4F80818B830FC08981882F90E007
:10174000FC01E658FF4F90819E012C5F3F4F82E0E5
:10175000692FA9010E947B0A8C81882371F38B81F8
:101760008D831CC089818F5F89838981843008F4CF
:10177000BDCF8A81882F90E0FC01E258FF4F908115
:1017800082E0692F41E00E944D088A818F5F8A8341
:101790008A81843008F49CCF8B818D838D810F905A
:1017A0000F900F900F900F90CF91DF910895DF93DE
:1017B000CF93CDB7DEB7E9970FB6F894DEBF0FBE73
:1017C000CDBF19AE81E062E041E00E945D07982F35
:1017D00089AD892B89AF81E061E041E00E945D071E
:1017E000982F89AD892B89AF81E060E041E00E94AC
:1017F0005D07982F89AD892B89AF80E060E041E0DB
:101800000E945D07982F89AD892B89AF80E061E048
:1018100041E00E945D07982F89AD892B89AF80E058
:1018200062E041E00E945D07982F89AD892B89AF66
:1018300080E063E041E00E945D07982F89AD892B2D
:1018400089AF80E090E0ACE0B2E48DAB9EABAFAB93
:10185000B8AF6DA97EA98FA998AD20E030E04AE726
:1018600053E40E941F02DC01CB0189AB9AABABAB06
:10187000BCAB69A97AA98BA99CA920E030E040E81B
:101880005FE30E94790388232CF481E090E098AB19
:101890008FA73FC069A97AA98BA99CA920E03FEF37
:1018A0004FE757E40E94190318164CF56DA97EA95D
:1018B0008FA998AD20E030E040E251E40E941F0281
:1018C000DC01CB01BC01CD010E944900DC01CB0150
:1018D00098AB8FA70FC089E190E09EA78DA78DA53B
:1018E0009EA50197F1F79EA78DA78FA598A90197AF
:1018F00098AB8FA78FA598A9009769F714C069A91D
:101900007AA98BA99CA90E944900DC01CB0198AB64
:101910008FA78FA598A99CA78BA78BA59CA501979E
:10192000F1F79CA78BA780E064E041E00E945D078F
:10193000982F89AD892B89AF80E065E041E00E9456
:101940005D07982F89AD892B89AF80E066E041E083
:101950000E945D07982F89AD892B89AF80E067E0F1
:1019600041E00E945D07982F89AD892B89AF88E3FC
:101970000E94FC0F982F89AD892B89AF80E090E001
:10198000A0E8BFE38FA398A7A9A7BAA76FA178A5DE
:1019900089A59AA520E030E04AE753E40E941F029F
:1019A000DC01CB018BA39CA3ADA3BEA36BA17CA147
:1019B0008DA19EA120E030E040E85FE30E94790322
:1019C00088232CF481E090E09AA389A33FC06BA107
:1019D0007CA18DA19EA120E03FEF4FE757E40E943C
:1019E000190318164CF56FA178A589A59AA520E0D2
:1019F00030E040E251E40E941F02DC01CB01BC0157
:101A0000CD010E944900DC01CB019AA389A30FC03C
:101A100089E190E098A38F8F8F8D98A10197F1F7BE
:101A200098A38F8F89A19AA101979AA389A389A1CD
:101A30009AA1009769F714C06BA17CA18DA19EA10A
:101A40000E944900DC01CB019AA389A389A19AA134
:101A50009E8F8D8F8D8D9E8D0197F1F79E8F8D8F2F
:101A60008FE00E94FC0F982F89AD892B89AF80E011
:101A700090E0A0E8BFE3898F9A8FAB8FBC8F698D10
:101A80007A8D8B8D9C8D20E030E04AE753E40E94F4
:101A90001F02DC01CB018D8B9E8BAF8BB88F6D89C4
:101AA0007E898F89988D20E030E040E85FE30E94D6
:101AB000790388232CF481E090E09C8B8B8B3FC0D2
:101AC0006D897E898F89988D20E03FEF4FE757E43D
:101AD0000E94190318164CF5698D7A8D8B8D9C8D9B
:101AE00020E030E040E251E40E941F02DC01CB0123
:101AF000BC01CD010E944900DC01CB019C8B8B8B8A
:101B00000FC089E190E09A8B898B89899A89019726
:101B1000F1F79A8B898B8B899C8901979C8B8B8B96
:101B20008B899C89009769F714C06D897E898F899C
:101B3000988D0E944900DC01CB019C8B8B8B8B899B
:101B40009C89988B8F878F8598890197F1F7988B5F
:101B50008F8781E00E94FC0F982F89AD892B89AF78
:101B600080E090E0A0E0B0E48B879C87AD87BE87E3
:101B70006B857C858D859E8520E030E04AE753E4C7
:101B80000E941F02DC01CB018F839887A987BA8747
:101B90006F81788589859A8520E030E040E85FE3B1
:101BA0000E94790388232CF481E090E09E838D834A
:101BB0003FC06F81788589859A8520E03FEF4FE7A8
:101BC00057E40E94190318164CF56B857C858D85AA
:101BD0009E8520E030E040E251E40E941F02DC01DB
:101BE000CB01BC01CD010E944900DC01CB019E83E9
:101BF0008D830FC089E190E09C838B838B819C81D6
:101C00000197F1F79C838B838D819E8101979E8341
:101C10008D838D819E81009769F714C06F817885CF
:101C200089859A850E944900DC01CB019E838D83C2
:101C30008D819E819A83898389819A810197F1F7A9
:101C40009A83898386E00E94FC0F982F89AD892BA7
:101C500089AF89ADE9960FB6F894DEBF0FBECDBF50
:101C6000CF91DF910895DF93CF9300D0CDB7DEB74A
:101C70008A83198281E062E041E00E944D08982F3A
:101C80008981892B89838A810E946D0E982F898191
:101C9000892B898389810F900F90CF91DF910895CF
:101CA000DF93CF9300D0CDB7DEB78A83198281E06E
:101CB00062E040E00E944D08982F8981892B89833A
:101CC0008A810E946D0E982F8981892B8983898151
:101CD0000F900F90CF91DF910895DF93CF93CDB701
:101CE000DEB76E970FB6F894DEBF0FBECDBF8E8FF6
:101CF0001D8E81E061E040E00E944D08982F8D8D9F
:101D0000892B8D8F81E060E040E00E944D08982F84
:101D10008D8D892B8D8F8E8D982F991F9927991FC7
:101D200080E060E0492F0E944D08982F8D8D892B0F
:101D30008D8F8E8D8295869586958370982F917064
:101D400080E061E0492F0E944D08982F8D8D892BEE
:101D50008D8F8E8D829586958770982F917080E0FB
:101D600062E0492F0E944D08982F8D8D892B8D8F11
:101D70008E8D82958F70982F917080E063E0492F4F
:101D80000E944D08982F8D8D892B8D8F8E8D869575
:101D900086958695982F917080E064E0492F0E9487
:101DA0004D08982F8D8D892B8D8F8E8D86958695DC
:101DB000982F917080E065E0492F0E944D08982F80
:101DC0008D8D892B8D8F8E8D8695982F917080E0CB
:101DD00066E0492F0E944D08982F8D8D892B8D8F9D
:101DE0008E8D982F917080E067E0492F0E944D08FA
:101DF000982F8D8D892B8D8F81E060E041E00E94CE
:101E00004D08982F8D8D892B8D8F80E090E0A0E27A
:101E1000B1E4898F9A8FAB8FBC8F698D7A8D8B8D52
:101E20009C8D20E030E04AE753E40E941F02DC0171
:101E3000CB018D8B9E8BAF8BB88F6D897E898F89FF
:101E4000988D20E030E040E85FE30E94790388232A
:101E50002CF481E090E09C8B8B8B3FC06D897E8958
:101E60008F89988D20E03FEF4FE757E40E941903D8
:101E700018164CF5698D7A8D8B8D9C8D20E030E0A5
:101E800040E251E40E941F02DC01CB01BC01CD0104
:101E90000E944900DC01CB019C8B8B8B0FC089E138
:101EA00090E09A8B898B89899A890197F1F79A8BAF
:101EB000898B8B899C8901979C8B8B8B8B899C89C7
:101EC000009769F714C06D897E898F89988D0E946B
:101ED0004900DC01CB019C8B8B8B8B899C89988B77
:101EE0008F878F8598890197F1F7988B8F8781E08D
:101EF00060E040E00E944D08982F8D8D892B8D8FDA
:101F000080E090E0A0E2B1E48B879C87AD87BE873C
:101F10006B857C858D859E8520E030E04AE753E423
:101F20000E941F02DC01CB018F839887A987BA87A3
:101F30006F81788589859A8520E030E040E85FE30D
:101F40000E94790388232CF481E090E09E838D83A6
:101F50003FC06F81788589859A8520E03FEF4FE704
:101F600057E40E94190318164CF56B857C858D8506
:101F70009E8520E030E040E251E40E941F02DC0137
:101F8000CB01BC01CD010E944900DC01CB019E8345
:101F90008D830FC089E190E09C838B838B819C8132
:101FA0000197F1F79C838B838D819E8101979E839E
:101FB0008D838D819E81009769F714C06F8178852C
:101FC00089859A850E944900DC01CB019E838D831F
:101FD0008D819E819A83898389819A810197F1F706
:101FE0009A8389838D8D6E960FB6F894DEBF0FBEEF
:101FF000CDBFCF91DF910895DF93CF93CDB7DEB7FB
:1020000060970FB6F894DEBF0FBECDBF888B1F86DA
:1020100081E062E040E00E944D08982F8F85892B77
:102020008F8781E061E040E00E944D08982F8F8506
:10203000892B8F8781E060E040E00E944D08982F57
:102040008F85892B8F878889982F991F9927991FAA
:1020500080E060E0492F0E944D08982F8F85892BE2
:102060008F8788898295869586958370982F917041
:1020700080E061E0492F0E944D08982F8F85892BC1
:102080008F878889829586958770982F917080E0D8
:1020900062E0492F0E944D08982F8F85892B8F87EA
:1020A000888982958F70982F917080E063E0492F26
:1020B0000E944D08982F8F85892B8F878889869558
:1020C00086958695982F917080E064E0492F0E9454
:1020D0004D08982F8F85892B8F87888986958695BF
:1020E000982F917080E065E0492F0E944D08982F4D
:1020F0008F85892B8F8788898695982F917080E0AE
:1021000066E0492F0E944D08982F8F85892B8F8775
:102110008889982F917080E067E0492F0E944D08D0
:10212000982F8F85892B8F8781E060E041E00E94A6
:102130004D08982F8F85892B8F8780E090E0A0E253
:10214000B1E48B879C87AD87BE876B857C858D8549
:102150009E8520E030E04AE753E40E941F02DC0144
:10216000CB018F839887A987BA876F817885898506
:102170009A8520E030E040E85FE30E9479038823FD
:102180002CF481E090E09E838D833FC06F81788541
:1021900089859A8520E03FEF4FE757E40E941903B5
:1021A00018164CF56B857C858D859E8520E030E08A
:1021B00040E251E40E941F02DC01CB01BC01CD01D1
:1021C0000E944900DC01CB019E838D830FC089E111
:1021D00090E09C838B838B819C810197F1F79C839A
:1021E0008B838D819E8101979E838D838D819E81BE
:1021F000009769F714C06F81788589859A850E9458
:102200004900DC01CB019E838D838D819E819A8361
:10221000898389819A810197F1F79A83898381E083
:1022200060E040E00E944D08982F8F85892B8F87B2
:102230008F8560960FB6F894DEBF0FBECDBFCF91ED
:10224000DF910895DF93CF9300D00F92CDB7DEB723
:102250009B838A8319828A819B810097D1F013C066
:1022600081E062E041E00E944D08982F8981892B2E
:102270008983EA81FB8180810E946D0E8A819B8126
:1022800001969B838A83EA81FB818081882341F7C1
:1022900002C082E0898389810F900F900F90CF91C7
:1022A000DF9108950F931F93DF93CF93CDB7DEB7E0
:1022B00061970FB6F894DEBF0FBECDBF6E877F87E4
:1022C000888B998B1B821A8219828E859F85A8899B
:1022D000B9890097A105B105A9F580E30E94330EE5
:1022E0009B81892B8B8351C08A81082F10E08E85BA
:1022F0009F85A889B9892AE030E040E050E0BC0120
:10230000CD010E94CF15DC01CB01282F205DCE012D
:102310000496FC01E00FF11F20838E859F85A8891C
:10232000B9892AE030E040E050E0BC01CD010E94D4
:10233000CF15DA01C9018E879F87A88BB98B8A8157
:102340008F5F8A838E859F85A889B9890097A105AB
:10235000B10551F68A81898315C08981882F90E063
:102360009C0121503040CE010496FC01E20FF31F86
:1023700080810E94330E982F8B81892B8B838981DA
:10238000815089838981882341F78B8161960FB6BB
:10239000F894DEBF0FBECDBFCF91DF911F910F919B
:1023A0000895DF93CF9300D000D0CDB7DEB78983F7
:1023B0006A838A8181508A838981282F30E03C8317
:1023C0002B838B819C818130910531F02B813C8165
:1023D0002230310531F009C08A8180580E94500EA8
:1023E00004C08A8180540E94500E0F900F900F906D
:1023F0000F90CF91DF910895DF93CF930F92CDB7D8
:10240000DEB7198281E00E94500E982F8981892BB6
:10241000898389810F90CF91DF910895DF93CF93C6
:1024200000D00F92CDB7DEB789836A834B838A8150
:102430006B810E94D11189810E94330E80E00F9040
:102440000F900F90CF91DF910895DF93CF9300D03D
:1024500000D0CDB7DEB79A8389836B834C838B81A1
:102460006C810E94D11189819A810E94221180E0A1
:102470000F900F900F900F90CF91DF910895DF9301
:10248000CF9300D000D000D0CDB7DEB769837A8378
:102490008B839C834D832E838D816E810E94D1110D
:1024A00089819A81AB81BC81BC01CD010E9452110E
:1024B00080E026960FB6F894DEBF0FBECDBFCF9159
:1024C000DF910895DF93CF9300D00F92CDB7DEB7A1
:1024D000898389818B3219F089818D3229F481E0D9
:1024E00090E09B838A830DC089818A3219F08981AB
:1024F0008F3229F482E090E09B838A8302C01B82A2
:102500001A828A819B810F900F900F90CF91DF915B
:102510000895DF93CF9300D00F92CDB7DEB78983B4
:1025200089818B3249F089818D3231F089818A32FB
:1025300019F089818F3219F41B821A8204C081E05C
:1025400090E09B838A838A819B810F900F900F90EC
:10255000CF91DF9108950F931F93DF93CF93CDB762
:10256000DEB76D970FB6F894DEBF0FBECDBF9C8F60
:102570008B8F6D8F8D8D882F90E009960E943C1671
:102580009C838B831A821982CE0105960E94701457
:1025900082C08A81282F30E08B8D9C8DFC01E20F58
:1025A000F31F80810E948912009709F446C018C069
:1025B0008981282F30E08B819C81DC01A20FB31F21
:1025C0008A81282F30E08B8D9C8DFC01E20FF31F58
:1025D00080818C9389818F5F89838A818F5F8A83D1
:1025E0008A81282F30E08B8D9C8DFC01E20FF31F38
:1025F00080810E9489120097D9F68981282F30E0C6
:102600008B819C81FC01E20FF31F80E28083898132
:102610008F5F89832DC08981282F30E08B819C8139
:10262000AC01420F531F89818F5F89839E012B5F0D
:102630003F4FCA01B9010E94DB14CE0105960E94EA
:10264000BE140097A9F48A81282F30E08B8D9C8DD1
:10265000FC01E20FF31F80810E9462128C01CE0107
:1026600005960E9402150E946212801791079CF63F
:102670008A81282F30E08B8D9C8DFC01E20FF31FA7
:1026800090818A818F5F8A839E012B5F3F4F892FC4
:10269000B9010E9480148A81282F30E08B8D9C8D97
:1026A000FC01E20FF31F8081882309F072CF12C072
:1026B0008981282F30E08B819C81AC01420F531F10
:1026C00089818F5F89839E012B5F3F4FCA01B901CA
:1026D0000E94DB14CE0105960E94BE14009741F3C0
:1026E0008981282F30E08B819C81FC01E20FF31F50
:1026F00010828B819C816D960FB6F894DEBF0FBE61
:10270000CDBFCF91DF911F910F910895DF93CF93AC
:10271000CDB7DEB7A0970FB6F894DEBF0FBECDBF22
:102720009E8F8D8FCE0103960E9470141A8219829B
:10273000B9C0ED8DFE8D80818A3281F0ED8DFE8DE8
:102740008081853259F0ED8DFE8D80818B3231F0A4
:10275000ED8DFE8D80818D3209F068C0CE014B96E3
:102760009E012D5F3F4FB9010E94DB14CE014996B7
:102770009E012D5F3F4FB9010E94DB14ED8DFE8D50
:102780008081282F30E038A32F8F4F8D58A14A32F7
:10279000510541F18F8D98A18B32910534F42F8D25
:1027A00038A12532310561F134C04F8D58A14B322B
:1027B000510531F08F8D98A18D32910549F029C0D6
:1027C000898D9A8D282F8B8D9C8D820F8A8321C0B5
:1027D000898D9A8D282F8B8D9C8D922F981B892FF8
:1027E0008A8317C0898D9A8D2B8D3C8DAC01429FB9
:1027F000C001439F900D529F900D11248A8309C000
:10280000898D9A8D2B8D3C8DB9010E94BC15CB0111
:102810008A839E012D5F3F4F8A81B9010E948014F7
:102820008D8D9E8D01969E8F8D8F3CC0ED8DFE8D82
:102830008081803390F1ED8DFE8D80818A3368F543
:10284000198219C08981882F90E09C01220F331FC3
:10285000C901880F991F880F991F820F931F982F06
:10286000ED8DFE8D8081890F805389838D8D9E8DA6
:1028700001969E8F8D8FED8DFE8D8081803328F0A7
:10288000ED8DFE8D80818A33E8F29E012D5F3F4FF2
:102890008981B9010E94801405C08D8D9E8D01969D
:1028A0009E8F8D8FED8DFE8D8081882309F041CF25
:1028B000CE0103960E940215A0960FB6F894DEBFD3
:1028C0000FBECDBFCF91DF910895DF93CF93CDB7EA
:1028D000DEB70E94A30581E090E0CF91DF910895DB
:1028E000DF93CF9300D0CDB7DEB79A838983E98198
:1028F000FA81158A148A0F900F90CF91DF91089575
:10290000DF93CF9300D00F92CDB7DEB789837B835F
:102910006A83EA81FB81248935898A819B81FC0154
:10292000E20FF31F89818083C9010196EA81FB814F
:10293000958B848B0F900F900F90CF91DF9108951E
:10294000DF93CF9300D000D0CDB7DEB79A838983D1
:10295000E981FA81848995891C821B8284319105E1
:1029600021F481E090E09C838B838B819C810F908C
:102970000F900F900F90CF91DF910895DF93CF9339
:1029800000D000D0CDB7DEB79A838983E981FA8180
:10299000848995891C821B82009721F481E090E054
:1029A0009C838B838B819C810F900F900F900F9055
:1029B000CF91DF910895DF93CF9300D000D0CDB7B2
:1029C000DEB79A8389837C836B83EB81FC81848966
:1029D00095890197EB81FC81958B848BEB81FC8140
:1029E000248935898B819C81FC01E20FF31F808152
:1029F000E981FA8180830F900F900F900F90CF9113
:102A0000DF910895DF93CF9300D0CDB7DEB79A83DF
:102A10008983E981FA81848995899C01215030401C
:102A200089819A81FC01E20FF31F80810F900F9042
:102A3000CF91DF910895DF93CF9300D0CDB7DEB76C
:102A40009A838983E981FA81848995890F900F900F
:102A5000CF91DF910895DF93CF9300D0CDB7DEB74C
:102A60009A838983E981FA81158A148A0F900F90DD
:102A7000CF91DF910895DF93CF930F92CDB7DEB75B
:102A800089838981282F30E000D000D0EDB7FEB7D0
:102A9000319688E690E091838083338322830E947D
:102AA00041170F900F900F900F900F90CF91DF91E3
:102AB0000895DF93CF9300D000D000D0CDB7DEB71C
:102AC0009C838B837E836D83EB81FC8184899589D4
:102AD0009A83898313C089819A819C012150304057
:102AE0008B819C81FC01E20FF31F8081ED81FE81CF
:102AF000099589819A8101979A83898389819A812D
:102B00001816190644F326960FB6F894DEBF0FBECA
:102B1000CDBFCF91DF910895DF93CF9300D000D048
:102B2000CDB7DEB79A8389837C836B8389819A8151
:102B30002B813C81B9010E94DB14E981FA818081FB
:102B40002B813C81B9010E9480140F900F900F904F
:102B50000F90CF91DF910895DF93CF9300D0CDB741
:102B6000DEB79A83898389819A810E9470140F90BD
:102B70000F90CF91DF91089597FB092E07260AD079
:102B800077FD04D02ED006D000201AF47095619500
:102B90007F4F0895F6F7909581959F4F0895A1E294
:102BA0001A2EAA1BBB1BFD010DC0AA1FBB1FEE1FC7
:102BB000FF1FA217B307E407F50720F0A21BB30B12
:102BC000E40BF50B661F771F881F991F1A9469F78E
:102BD00060957095809590959B01AC01BD01CF01EA
:102BE0000895AA1BBB1B51E107C0AA1FBB1FA61754
:102BF000B70710F0A61BB70B881F991F5A95A9F7A6
:102C000080959095BC01CD0108952F923F924F92EF
:102C10005F926F927F928F929F92AF92BF92CF926C
:102C2000DF92EF92FF920F931F93CF93DF93CDB775
:102C3000DEB7CA1BDB0B0FB6F894DEBF0FBECDBFED
:102C400009942A88398848885F846E847D848C84BE
:102C50009B84AA84B984C884DF80EE80FD800C81C7
:102C60001B81AA81B981CE0FD11D0FB6F894DEBFAA
:102C70000FBECDBFED010895CF93DF93BC0182302D
:102C8000910510F462E070E0A0919600B091970079
:102C9000ED01E0E0F0E040E050E021C08881998162
:102CA0008617970769F48A819B81309719F093837F
:102CB000828304C09093970080939600FE0134C0F5
:102CC0006817790738F44115510519F084179507ED
:102CD00008F4AC01FE018A819B819C01E9012097E7
:102CE000E9F641155105A9F1CA01861B970B049716
:102CF00008F4BA01E0E0F0E02AC08D919C911197B0
:102D000084179507F9F46417750781F412968D916D
:102D10009C911397309719F09383828304C090930A
:102D2000970080939600FD0132964FC0CA01861B22
:102D3000970BFD01E80FF91F6193719302978D9333
:102D40009C9343C0FD01828193819C01D90110971E
:102D5000A1F68091940090919500892B41F4809187
:102D60007600909177009093950080939400409125
:102D70007800509179004115510541F44DB75EB787
:102D80008091740090917500481B590B209194001C
:102D90003091950024173507B0F4CA01821B930BBC
:102DA0008617970780F0AB014E5F5F4F841795073A
:102DB00050F0420F531F5093950040939400F90137
:102DC0006193719302C0E0E0F0E0CF01DF91CF9119
:102DD0000895CF93DF93009709F450C0EC01229738
:102DE0001B821A82A0919600B0919700109709F16A
:102DF00040E050E0AC17BD0708F1BB83AA83FE0199
:102E000021913191E20FF31FAE17BF0779F48D9135
:102E10009C911197280F391F2E5F3F4F39832883CC
:102E200012968D919C9113979B838A83411551052E
:102E300071F4D0939700C093960020C012968D91A4
:102E40009C911397AD01009711F0DC01D3CFFA01EB
:102E5000D383C28321913191E20FF31FCE17DF0795
:102E600069F488819981280F391F2E5F3F4FFA013D
:102E7000318320838A819B8193838283DF91CF91E9
:102E80000895A0E0B0E0E7E4F7E10C941516FE0128
:102E900035966191719180919A0090919B00AF015C
:102EA0000E9456172096E2E00C943116ABE0B0E099
:102EB000ECE5F7E10C9405163C012B015A01FC01ED
:102EC00017821682838181FD03C06FEF7FEFC6C139
:102ED0009AE0892E1E010894211C311CF3012381E4
:102EE000F20123FD859123FF81912F01882309F4AD
:102EF000B2C1853239F423FD859123FF81912F01E1
:102F0000853229F490E0B3010E944919E7CF982F48
:102F1000FF24EE249924FFE1FF15D0F09B3269F0E5
:102F20009C3228F4903259F0933291F40EC09D32C5
:102F300049F0903369F441E024C052E0F52A84E07E
:102F4000F82A28C098E0F92A25C0E0E1FE2A22C02C
:102F5000F7FC29C0892F80538A3070F4F6FE05C033
:102F6000989C902C1124980E15C0E89CE02C1124FC
:102F7000E80EF0E2FF2A0EC09E3229F4F6FC6BC187
:102F800040E4F42A07C09C3619F450E8F52A02C040
:102F9000983649F4F20123FD959123FF91912F0179
:102FA000992309F0B8CF892F8554833018F08052C7
:102FB000833038F444E050E0A40EB51E5FE359833B
:102FC0000FC0933631F0933779F0933509F056C03E
:102FD00020C0F5018081898342E050E0A40EB51E37
:102FE000610101E010E012C0F501C080D180F6FC63
:102FF00003C06FEF7FEF02C0692D70E042E050E048
:10300000A40EB51EC6010E943E198C015FE7F52291
:1030100014C0F501C080D180F6FC03C06FEF7FEFD4
:1030200002C0692D70E042E050E0A40EB51EC6015A
:103030000E9433198C0150E8F52AF3FE07C01AC02C
:1030400080E290E0B3010E944919EA948E2D90E04D
:1030500008171907A8F30EC0F601F7FC8591F7FED3
:1030600081916F0190E0B3010E944919E110EA9447
:10307000015010400115110579F7EAC0943611F09E
:10308000993669F5F7FE08C0F5012081318142814A
:10309000538184E090E00AC0F501808191819C0118
:1030A000442737FD4095542F82E090E0A80EB91ECA
:1030B0009FE6F92257FF09C050954095309521951C
:1030C0003F4F4F4F5F4FE0E8FE2ACA01B901A1010F
:1030D0002AE030E00E947519D82ED21840C09537EA
:1030E00029F41F2D1F7E2AE030E01DC01F2D197FFF
:1030F0009F3661F0903720F4983509F0ACC00FC0CE
:10310000903739F0983709F0A6C004C028E030E0C5
:103110000AC0106114FD146020E130E004C014FD09
:10312000166020E132E017FF08C0F501608171816F
:103130008281938144E050E008C0F5018081918153
:10314000BC0180E090E042E050E0A40EB51EA10179
:103150000E947519D82ED2188FE7F82EF122F6FEAC
:103160000BC05EEFF522D91438F4F4FE07C0F2FC70
:1031700005C08FEEF82202C01D2D01C0192DF4FEEE
:103180000DC0FE01ED0DF11D8081803319F499EE23
:10319000F92208C01F5FF2FE05C003C08F2D86789C
:1031A00009F01F5F0F2DF3FC14C0F0FE0FC01E15B9
:1031B00010F09D2C0BC09D2C9E0C911A1E2D06C04C
:1031C00080E290E0B3010E9449191F5F1E15C0F311
:1031D00004C01E1510F4E11A01C0EE2404FF0FC054
:1031E00080E390E0B3010E94491902FF1DC001FD78
:1031F00003C088E790E00EC088E590E00BC0802F08
:10320000867891F001FF02C08BE201C080E2F7FCFA
:103210008DE290E0B3010E94491906C080E390E07E
:10322000B3010E9449199A94D914C0F3DA94F101B8
:10323000ED0DF11D808190E0B3010E944919DD2060
:10324000A9F706C080E290E0B3010E944919EA9410
:10325000EE20C1F743CEF30166817781CB012B9637
:10326000E2E10C942116FC010590615070400110C0
:10327000D8F7809590958E0F9F1F0895FC0161509F
:10328000704001900110D8F7809590958E0F9F1F88
:1032900008950F931F93CF93DF938C01EB018B81E4
:1032A00081FF1BC082FF0DC02E813F818C819D81DB
:1032B0002817390764F4E881F9810193F983E883D9
:1032C00006C0E885F985802F0995892B31F48E8118
:1032D0009F8101969F838E8302C00FEF1FEFC8016D
:1032E000DF91CF911F910F910895FA01AA272830FD
:1032F00051F1203181F1E8946F936E7F6E5F7F4FC3
:103300008F4F9F4FAF4FB1E03ED0B4E03CD0670F3E
:10331000781F891F9A1FA11D680F791F8A1F911D91
:10332000A11D6A0F711D811D911DA11D20D009F4E1
:1033300068943F912AE0269F11243019305D319323
:10334000DEF6CF010895462F4770405D4193B3E00C
:103350000FD0C9F7F6CF462F4F70405D4A3318F0B3
:10336000495D31FD4052419302D0A9F7EACFB4E064
:10337000A6959795879577956795BA95C9F700971C
:103380006105710508959B01AC010A2E06945795BD
:10339000479537952795BA95C9F7620F731F841F14
:0A33A000951FA01D0895F894FFCFBB
:1033AA0057454C434F4D450025640A000000000074
:1033BA000000000020009E0000000405060700012E
:1033CA00020307080925040506780102032D2400D3
:0233DA003D2B89
:00000001FF
